:020000040800F2
:10000000B80C002025260008C1030008C30300081F
:10001000C7030008CB030008CF030008000000005E
:10002000000000000000000000000000D3030008F2
:10003000D503000800000000D7030008D90300081A
:100040003F2600083F2600083F2600083F260008FC
:100050003F2600083F2600083F2600083F260008EC
:100060003F2600083F2600083F2600083F260008DC
:100070003F2600083F2600083F2600083F260008CC
:100080003F2600083F2600083F2600083F260008BC
:100090003F2600083F2600083F2600083F260008AC
:1000A0003F2600083F2600083F2600083F2600089C
:1000B0003F260008FF2700083F2600083F260008CB
:1000C0003F2600083F2600083F2600083F2600087C
:1000D0003F2600081D4C0008894C0008D54C00083C
:1000E0003F2600083F2600083F2600083F2600085C
:1000F0003F2600083F2600083F2600083F2600084C
:100100003F2600083F2600083F2600083F2600083B
:100110003F2600083F2600083F2600083F2600082B
:100120003F2600083F2600083F2600083F2600081B
:1001300000F002F800F090F80AA090E8000C824469
:100140008344AAF10107DA4501D100F085F8AFF246
:10015000090EBAE80F0013F0010F18BFFB1A43F0A5
:10016000010318477092000090920000103A24BFDB
:1001700078C878C1FAD8520724BF30C830C144BF0C
:1001800004680C607047000000230024002500264E
:10019000103A28BF78C1FBD8520728BF30C148BFEA
:1001A0000B6070476E2905F03182702904F0AF862C
:1001B000662906F0E184652906F0DE84672906F0E9
:1001C000DB846129AFF3008003681B0A28BF41F07C
:1001D0008001692904F02086642904F01D867529B0
:1001E00004F01A866F2905F03183782904F07B86A4
:1001F000E92905F0CB82E42905F0C882F52905F04C
:10020000C582EF2905F02E83F82904F07A86036869
:10021000DB0928BF41F08001632905F03A82732988
:1002200005F03F82E32905F0D085F32905F0D58557
:10023000002070471FB505F0E1FF040000200021F9
:1002400006F084FC401C60600020002106F068FC81
:10025000E0601FBD10B510BD05F0A2FF1146FFF70D
:10026000E9FF00F009F806F07BF803B4FFF7F2FFAE
:1002700003BC04F043FB000010B5002404F0CEFAE8
:1002800004F036FB02F023FA4FF4E13004F075FB82
:1002900026A004F069FC03F00EFE20202949086125
:1002A00003F0D8FF284804F05CF804F011F84FF48C
:1002B000966004F0F0FA02F0D5F902F0EEF94FF48E
:1002C000E13004F0AFFB21A004F05FFC4FF4E1301B
:1002D00004F0F8FB23A004F06DFC284804F034FD82
:1002E00002F0C9FA02F07CFE04F075FC02F08BFF0C
:1002F00004F0CAF819E022A004F026FD4FF496702D
:1003000004F0C9FA02F021FE0A2C02D104F04FF9E0
:10031000002404F0C0F928B122A004F015FD4FF02C
:10032000FF3010BD02F00EFA641CE4E75541525450
:100330003120496E69742053756363657373667504
:100340006C0D0A00001001407C6B000855415254AE
:100350003220496E697420537563636573736675E3
:100360006C0D0A00554152543320496E6974205374
:1003700075636365737366756C0D0A00AC92000853
:100380000D0A202323232323232323232323232072
:100390006F6B21202323232323232323232323239E
:1003A0000D0A00007365742072656C6179207374A6
:1003B00061747573206661696C210D0A000000008C
:1003C000704700BFFEE700BFFEE700BFFEE700BFCB
:1003D000FEE77047704770477047000010B500F0A7
:1003E0003DFE012000F0BFFE00BF212000F079FE9D
:1003F0000028FAD0102000F099F9022000F082F9CC
:10040000002000F0D0FE002000F0DFFE4FF48060FE
:1004100000F0D2FE4FF46011002000F0A7FE012092
:1004200000F0B0FE00BF392000F05BFE0028FAD0DB
:10043000022000F0AAFE00BF00F0B0FE0828FBD1A9
:1004400001211D2000F078FF10BD0CB500200190A7
:1004500000906C48006840F480306A49086000BF32
:100460006848006800F4003000900198401C01903A
:10047000009818B90198B0F5A06FF1D161480068F3
:1004800000F4003010B10120009001E00020009045
:100490000098012843D15C48006840F010005A4998
:1004A00008600846006820F00300086008460068FD
:1004B00040F00200086053484068524948600846CE
:1004C000406848600846406840F4806048600846DC
:1004D000406820F47C1048600846406840F4E8100A
:1004E00048600846006840F08070086000BF4548DA
:1004F000006800F000700028F9D04248406820F001
:100500000300404948600846406840F002004860E7
:1005100000BF3C48406800F00C000828F9D10CBD31
:1005200010B5FFF792FF10BD10B53648006840F0D7
:1005300001003449086008464068344908403149A0
:10054000486008460068324908402E49086008465D
:10055000006820F4802008600846406820F4FE000F
:1005600048604FF41F008860FFF7DAFF4FF000602B
:100570002849086010BD10B5002100200022214B41
:100580005B6803F00C0121B1042906D0082928D1A9
:1005900007E0214B214C236027E01F4B1F4C2360B9
:1005A00023E0184B5B6803F47010164B5B6803F490
:1005B0008032022303EB904022B9194B4343174C7E
:1005C00023600DE00F4B5B6803F4003323B1144B41
:1005D0004343124C236003E00F4B43430F4C236013
:1005E00003E00D4B0D4C236000BF00BF054B5B6863
:1005F000C3F303130B4CE15C084B1B68CB40074C67
:10060000236010BD00100240002002400000FFF8EF
:10061000FFFFF6FE08ED00E000127A000000002067
:1006200000093D000400002031490143314A1160B6
:10063000704770B5002100230F22C47804B32D4CFD
:10064000246804F4E064C4F5E064210AC1F1040301
:10065000CA40447804FA03F1847814402143090124
:10066000254C0678A155047804F01F050124AC4000
:1006700005786D11AD0005F1E025C5F8004109E0F0
:10068000047804F01F050124AC401C4D0678761157
:1006900045F8264070BD1A4A0A400243154B1B1FFD
:1006A0001A60704739B1134A121D12680243114B88
:1006B0001B1D1A6006E00F4A121D126882430D4B83
:1006C0001B1D1A607047042808D14FF0E02109690A
:1006D00041F004014FF0E022116107E04FF0E0210A
:1006E000096921F004014FF0E02211617047000018
:1006F0000000FA050CED00E000E400E080E100E01D
:1007000080FFFF1F01460020FE4A106800F03800FD
:10071000084310607047FB49096821F00801F94A55
:10072000116011460968014311607047F549096875
:1007300021F01001F34A116011460968014311606C
:100740007047F148EF494860F04848607047EE480C
:10075000EC494860ED4848607047EA48006940F05D
:100760008000E84908617047E648006940F0800071
:10077000E449086170470420E249C96801F00101B9
:1007800009B101200EE0DF49C96801F0040109B197
:10079000022007E0DB49C96801F0100109B103201C
:1007A00000E00420704700B502460423FFF7E3FF92
:1007B000034603E0FFF7DFFF0346521E012B01D182
:1007C000002AF7D102B90523184600BD30B504460A
:1007D00004254FF43020FFF7E6FF0546042D17D11E
:1007E000C848006940F00200C649086108464461F3
:1007F000006940F0400008614FF43020FFF7D3FF5C
:100800000546C048006941F6FD710840BD490861D0
:10081000284630BD10B504244FF43020FFF7C3FF45
:100820000446042C16D1B748006940F00400B549CD
:1008300008610846006940F0400008614FF430202C
:10084000FFF7B1FF0446AF48006941F6FB7108406D
:10085000AC490861204610BD00B502460423FFF7ED
:100860008AFF034603E0FFF786FF0346521E012B73
:1008700001D1002AF7D102B90523184600BD10B5F1
:1008800004244FF43020FFF7E7FF0446042C16D170
:100890009C48006940F004009A49086108460069D4
:1008A00040F0400008614FF43020FFF7D5FF0446C8
:1008B0009448006941F6FB7108409249086120465E
:1008C00010BD00208F49C96901F0020109B1012062
:1008D00000E00020704730B5A5250424FFF7F1FFA4
:1008E00000B100254FF43020FFF75DFF0446042CD3
:1008F0003AD1854883498860844888600846006901
:1009000040F0200008610846006940F0400008619E
:100910004FF43020FFF747FF0446042C1BD17948E1
:10092000006941F6DF7108407649086108460069B0
:1009300040F01000086176480580E002FFF733FFC1
:100940000446052C10D06F48006941F6EF7108404D
:100950006C49086108E0052C06D06A48006941F638
:10096000EF71084067490861204630BD78B50646FA
:100970000C46042500200090E802FFF714FF05460E
:10098000042D24D15F48006940F001005D490861F1
:100990003480E802FFF707FF0546042D10D1B01C94
:1009A0000090200C00990880E802FFF7FCFE054645
:1009B0005448006941F6FE7108405249086106E05A
:1009C0005048006941F6FE7108404E4908612846CA
:1009D00078BD70B504460D460426F002FFF7E3FE2D
:1009E0000646042E11D14748006940F001004549F0
:1009F00008612580F002FFF7D6FE064641480069EF
:100A000041F6FE7108403F490861304670BD70B53F
:100A100005460E460424E002FFF7C5FE0446042CFA
:100A200017D13948374988603848886008460069D6
:100A300040F0100008612E80E002FFF7B4FE04468B
:100A4000052C06D02F48006941F6EF7108402D496A
:100A50000861204670BD2DE9F04304464FF6FF764D
:100A60003746B046B1460425E443E6B2C4F307274F
:100A7000C4F307484FEA1469E802FFF794FE0546FD
:100A8000042D49D120481F498860204888600846C5
:100A9000006940F010000861FF2E06D01C480830A5
:100AA0000680E802FFF77FFE0546042D08D1FF2FE0
:100AB00006D017480A300780E802FFF774FE0546A3
:100AC000042D0AD1B8F1FF0F07D011480C30A0F85F
:100AD0000080E802FFF767FE0546042D0AD1B9F150
:100AE000FF0F07D00A480E30A0F80090E802FFF789
:100AF0005AFE0546052D0FD00248006941F6EF71F8
:100B0000084007E00020024023016745AB89EFCD94
:100B100000F8FF1F664908612846BDE8F08330B53C
:100B2000054604244FF43020FFF73DFE0446042C14
:100B300041D160485E4988605F4888600846006926
:100B400040F0200008610846006940F0400008615C
:100B50004FF43020FFF727FE0446042C22D15448DE
:100B6000006941F6DF710840514908610846006993
:100B700040F0100008611DB100205049088002E0DB
:100B8000A5204E4908804FF43020FFF70CFE0446A4
:100B9000052C10D04648006941F6EF7108404449E1
:100BA000086108E0052C06D04148006941F6DF7174
:100BB00008403F490861204630BDF0B505460E4665
:100BC000174604243B483A4988603B488860E00265
:100BD000FFF7E9FD0446042C19D13548006940F0BF
:100BE00010003349086147F0F80030432843334987
:100BF000891C0880E002FFF7D6FD0446052C06D0CC
:100C00002B48006941F6EF710840294908612046E8
:100C1000F0BD2748C069800870472548006A7047C2
:100C200000202349096801F0200109B1012000E0FA
:100C30000020704729B11E4A126902431C4B1A61F9
:100C400004E01B4A12698243194B1A61704701463E
:100C50000020012908D1164AD26902F001020AB126
:100C6000012008E0002006E0114AD2680A400AB1DB
:100C7000012000E0002070470D49C8607047042043
:100C80000B49C96801F0010109B101200EE00849D2
:100C9000C96801F0040109B1022007E00449C968EC
:100CA00001F0100109B1032000E0042070470000AA
:100CB0000020024023016745AB89EFCD00F8FF1FFC
:100CC00010B50446CC48844208D10121042000F02C
:100CD0004DFB0021042000F049FB46E0C748844258
:100CE00008D10121082000F041FB0021082000F07C
:100CF0003DFB3AE0C248844208D10121102000F0B7
:100D000035FB0021102000F031FB2EE0BD4884426D
:100D100008D10121202000F029FB0021202000F033
:100D200025FB22E0B848844208D10121402000F090
:100D30001DFB0021402000F019FB16E0B34884425F
:100D400008D10121802000F011FB0021802000F05B
:100D50000DFB0AE0AE48844207D10121801500F066
:100D600005FB0021A01500F001FB10BD10B501210D
:100D7000084600F0FBFA0021012000F0F7FA10BD50
:100D80002DE9F04102460025002600200023002422
:100D9000002791F803C00CF00F0591F803C00CF088
:100DA000100CBCF1000F03D091F802C04CEA05050D
:100DB00091F800C0BCF1000F31D0146800202BE086
:100DC0004FF0010C0CFA00F3B1F800C00CEA030676
:100DD0009E4220D183004FF00F0C0CFA03F7BC4366
:100DE00005FA03FC4CEA040491F803C0BCF1280F97
:100DF00006D14FF0010C0CFA00FCC2F814C00AE056
:100E000091F803C0BCF1480F05D14FF0010C0CFA6A
:100E100000FCC2F810C0401C0828D1D31460B1F8FF
:100E200000C0BCF1FF0F34DD546800202EE000F15B
:100E3000080C4FF0010808FA0CF3B1F800C00CEAF6
:100E400003069E4221D183004FF00F0C0CFA03F7EA
:100E5000BC4305FA03FC4CEA040491F803C0BCF15E
:100E6000280F05D100F1080C08FA0CF8C2F814801C
:100E700091F803C0BCF1480F07D100F1080C4FF006
:100E8000010808FA0CF8C2F81080401C0828CED3DC
:100E90005460BDE8F0814FF6FF710180022181703E
:100EA0000421C17070470246002093680B400BB1CB
:100EB000012000E0002070470146886880B270473A
:100EC00002460020D3680B400BB1012000E0002057
:100ED00070470146C86880B2704701617047416140
:100EE00070470AB1016100E041617047C16070471D
:100EF0004FF480320A438261816182618269826932
:100F0000704702460020434B18684FF68073184024
:100F100040EA021008433F4B186070473E49C861E1
:100F20007047F0B50A46002300240021002500F098
:100F30000046B6F1004F02D1364EF16901E0354E60
:100F40007168C0F3034583B200F44016B6F5401F44
:100F500008D121F070612F4E766826F070662D4F13
:100F60007E6012E000F48016B6F5801F06D10326DD
:100F700006FA05F4A14341F0706106E0460D360122
:100F800003FA06F6B14341F0706122B1460D360115
:100F900003FA06F6314300F00046B6F1004F02D1E5
:100FA0001C4EF16101E01B4E7160F0BD30B50022B6
:100FB0008B071C0F0F2303FA04F2164B08338C1017
:100FC00053F824309343134C08348D1044F82530E3
:100FD00023468C1053F824308C07240F00FA04F4B5
:100FE00023430C4C08348D1044F8253030BD0A4999
:100FF000DC3108607047000000080140000C01402F
:10100000001001400014014000180140001C014084
:101010000020014000000140000020420E4908600D
:1010200070470D49486070470B49886070474AF621
:10103000AA200949086070474CF6CC400649086070
:10104000704701460020044AD2680A400AB10120D4
:1010500000E000207047000000300040DF480068DA
:1010600040F00100DD49086008464068DC4908405E
:10107000DA49486008460068DA490840D7490860FC
:101080000846006820F4802008600846406820F484
:10109000FE0048604FF41F0088607047CF49096820
:1010A00021F48031CD4A11601146096821F4802174
:1010B0001160B0F5803F03D0B0F5802F0ED106E06F
:1010C000C649096841F48031C44A116007E0C34948
:1010D000096841F4A021C14A116000E000BF00BFCF
:1010E000704710B501460022002300204A11012A52
:1010F00002D1BA4C236806E0022A02D1B74C236A17
:1011000001E0B64C636A01F01F02012494401C40C8
:101110000CB1012000E0002010BD38B50020009087
:101120000024002500BF3120FFF7DBFF05460098B3
:10113000401C00900098B0F5A06F01D0002DF2D0B7
:101140003120FFF7CEFF08B1012400E00024204643
:1011500038BD01460020A14A106820F0F80040EA9E
:10116000C10010607047A049086070470246002027
:101170009A4B586820F47C1042EA01031843974BBD
:101180005860704798490866704701460020934AA6
:10119000506820F003000843506070478F48406853
:1011A00000F00C007047014600208C4A506820F087
:1011B000F00008435060704701460020874A50689D
:1011C00020F4E06008435060704701460020834AE5
:1011D000506820F4605040EAC1005060704729B167
:1011E0007E4A527A02437D4B5A7204E07B4A527A1D
:1011F00082437A4B5A7270477B49D83108607047F6
:1012000001460020754A506820F440400843506071
:1012100070470021714A20321170704A82F8201004
:10122000012802D004280AD104E001216B4A2032AF
:10123000117005E00521694A2032117000E000BFFD
:1012400000BF70476949086070476449096A0143F3
:10125000624A11627047654944390860704730B589
:1012600000210022002400235C4D6D6805F00C0174
:1012700021B1042905D0082923D105E05C4D056082
:1012800022E05B4D05601FE0544D6D6805F470125F
:10129000524D6D6805F48034022505EB92421CB96D
:1012A000544D554305600BE04C4D6D6805F4003519
:1012B0001DB1504D5543056002E04D4D554305604D
:1012C00002E04B4D056000BF00BF444D6D6805F066
:1012D000F0010909484D6B5C0568DD4045603F4DF4
:1012E0006D6805F4E061090A434D6B5C4568DD40BB
:1012F00085603A4D6D6805F46051C90A3E4D6B5CDE
:101300004568DD40C560354D6D6805F44041890B89
:101310003A4D6B5CC568B5FBF3F5056130BD29B18D
:101320002E4A526902432D4B5A6104E02B4A5269FE
:1013300082432A4B5A61704729B1284A9269024375
:10134000264B9A6104E0254A92698243234B9A61B5
:10135000704729B1214AD2690243204BDA6104E087
:101360001E4AD26982431D4BDA61704729B11B4A7C
:10137000D2680243194BDA6004E0184AD26882430B
:10138000164BDA60704729B1144A12690243134BB5
:101390001A6104E0114A12698243104B1A617047C6
:1013A00012494039086070470F49C86470470B49BB
:1013B000C87170470948406A40F080700749486228
:1013C000704701460020054A92680A400AB1012090
:1013D00000E0002070470149887270470010024009
:1013E0000000FFF8FFFFF6FE000042428004424288
:1013F00000127A0000093D001400002024000020A3
:1014000010B50446FE48844208D10121C014FFF7FC
:10141000ADFF0021E014FFF7A9FFC4E0B4F1804F55
:1014200008D101210846FFF7AEFF00210120FFF798
:10143000AAFFB8E0F348844208D101210220FFF757
:10144000A2FF00210220FFF79EFFACE0EE4884429D
:1014500008D101210420FFF796FF00210420FFF7A7
:1014600092FFA0E0E948844208D101210820FFF75B
:101470008AFF00210820FFF786FF94E0E4488442B9
:1014800008D101211020FFF77EFF00211020FFF777
:101490007AFF88E0DF48844208D101212020FFF74D
:1014A00072FF00212020FFF76EFF7CE0DA488442C3
:1014B00008D101214014FFF759FF00216014FFF704
:1014C00055FF70E0D548844209D10121C804FFF7D7
:1014D0004DFF00214FF40020FFF748FF63E0D048A4
:1014E000844209D101210805FFF740FF00214FF494
:1014F0008010FFF73BFF56E0CA48844209D1012122
:101500004805FFF733FF00214FF40010FFF72EFFCF
:1015100049E0C548844208D101214020FFF733FF4C
:1015200000214020FFF72FFF3DE0C048844208D152
:1015300001218020FFF727FF00218020FFF723FFF4
:1015400031E0BB48844208D101218015FFF71BFF21
:101550000021A015FFF717FF25E0B648844209D106
:1015600001210804FFF702FF00214FF48030FFF74C
:10157000FDFE18E0B048844209D101214804FFF77C
:10158000F5FE00214FF40030FFF7F0FE0BE0AB4812
:10159000844208D101218804FFF7E8FE00214FF4BE
:1015A0008020FFF7E3FE10BD00220288944B984292
:1015B0000ED0994B98420BD0B0F1804F08D0914B90
:1015C000984205D0904B984202D0904B984204D15B
:1015D0004FF68F731A404B881A438D4B984207D0B1
:1015E0008C4B984204D04FF6FF431A40CB881A43E5
:1015F00002808B8883850B880385814B98420BD0B2
:10160000854B984208D08B4B984205D08A4B984224
:1016100002D08A4B984201D10B7A03860123838240
:10162000704770B5002400220023058C4FF6FE762B
:1016300035400584028C8388048B4FF68F752C40CF
:10164000B51E2C400D882C43751E2A400D892A4357
:101650004D882A436A4DA8420BD06F4DA84208D04E
:10166000744DA84205D0744DA84202D0734DA842D3
:1016700013D14FF6F7752A404D892A434FF6FB7573
:101680002A408D882A434FF6FF652B404FF6FF55C1
:101690002B408D892B43CD892B4383800483CD88B8
:1016A0008586028470BD70B5002400220023058C5D
:1016B0004FF6EF7635400584028C8388048B48F61C
:1016C000FF752C404FF6FF452C400D884FF6FF76F6
:1016D00006EA05252C434FF6DF752A400D8906EAF8
:1016E00005152A434D8806EA05152A43444DA842AC
:1016F00002D0494DA8421DD14FF67F752A404D8931
:101700004FF6FF7606EA05152A434FF6BF752A40C5
:101710008D8806EA05152A434FF6FF352B404FF218
:10172000FF752B408D8906EA85052B43CD8906EA96
:1017300085052B4383800483CD880587028470BD93
:1017400070B5002400220023058C4FF6FF6635405B
:101750000584028C8388848B4FF68F752C404FF65E
:10176000FC752C400D882C434FF6FF552A400D89FF
:101770004FF6FF7606EA05252A434D8806EA052539
:101780002A431F4DA84202D0234DA8421DD14FF23B
:10179000FF752A404D894FF6FF7606EA05252A4354
:1017A0004FF6FF352A408D8806EA05252A434EF676
:1017B000FF752B404DF6FF752B408D8906EA051508
:1017C0002B43CD8906EA05152B4383808483CD887E
:1017D0008587028470BD70B5002200230024058C2B
:1017E0004EF6FF7635400584038C8488828B48F65C
:1017F000FF752A404FF6FF452A400D8820E0000083
:10180000002C01400004004000080040000C004093
:10181000001000400014004000340140004C014022
:10182000005001400054014000180040001C0040DE
:1018300000200040004001400044014000480140B9
:101840004FF6FF7606EA05252A434DF6FF752B4035
:101850000D8906EA05352B434D8806EA05352B43ED
:10186000FA4DA84202D0FA4DA84208D14BF6FF75B6
:101870002C408D894FF6FF7606EA85152C4384802F
:101880008283CD88A0F84050038470BD828B4FF2D4
:10189000FF331A408283828B4FF6FF7303EA0123E2
:1018A0001A4382837047F0B50C461546002200218A
:1018B0000026078C4EF6FF7C07EA0C070784828B14
:1018C000018C4FF6FF7707EA043640F6FF473A40AF
:1018D0004FF6FF7707EA05273A434FF6FF7707EA07
:1018E00003373A43D94FB8420ED0D94FB8420BD044
:1018F000B0F1804F08D0D74FB84205D0D64FB8428C
:1019000002D0D64FB84206D14DF6FF77394046F4A3
:101910008057394305E047F6FF57394044F4805774
:10192000394382830184F0BD828B4FF6F3731A40F2
:101930008283828B0A4382837047F0B50C4615463A
:10194000002200210026078C4FF6FF6C07EA0C07E7
:101950000784828B018C4FF6FF7707EA04264FF647
:101960000C773A404FF6FF7707EA03172F433A43C5
:10197000B64FB8420ED0B64FB8420BD0B0F1804F40
:1019800008D0B44FB84205D0B34FB84202D0B34FDD
:10199000B84206D14FF6FF57394046F480773943B5
:1019A00005E04FF2FF57394044F480773943828392
:1019B0000184F0BD028B4FF2FF331A400283028B89
:1019C0004FF6FF7303EA01231A4302837047F0B511
:1019D0000C461546002200210026078C4FF6EF7CAE
:1019E00007EA0C070784028B018C4FF6FF7707EAA2
:1019F000041640F6FF473A404FF6FF7707EA0337F1
:101A00003A434FF6FF7707EA05273A438F4FB8422C
:101A10000ED08F4FB8420BD0B0F1804F08D08D4F11
:101A2000B84205D08C4FB84202D08C4FB84206D194
:101A30004FF6DF77394046F01007394305E04FF69F
:101A40005F77394044F01007394302830184F0BDC9
:101A5000028B4FF6F3731A400283028B0A43028310
:101A60007047F0B50C46154600220021068C4FF653
:101A7000FE773E400684028B018C4FF60C76324096
:101A80007E1C06EA03162E433243704EB0420ED03F
:101A90006F4EB0420BD0B0F1804F08D06D4EB042C7
:101AA00005D06D4EB04202D06C4EB04206D14FF61A
:101AB000FD76314044F00106314305E04FF6F576FE
:101AC000314044F00106314302830184F0BD70B51A
:101AD00005460C465D4885420ED05D4885420BD0D8
:101AE000B5F1804F08D05B48854205D05A48854201
:101AF00002D05A48854200D100E000BF208850B98A
:101B00002389A28861882846FFF7ABFFE188284631
:101B1000FFF79EFF25E0208804280AD12389A288A8
:101B200061882846FFF753FFE1882846FFF742FF08
:101B300017E0208808280AD12389A28861882846CE
:101B4000FFF7FBFEE1882846FFF7EEFE09E0238958
:101B5000A28861882846FFF7A6FEE1882846FFF79D
:101B600095FE70BD2DE9F04105460C460026012783
:101B7000608808B9022600E00026A088012801D16B
:101B8000022700E001272088A0B92389A288618864
:101B90002846FFF766FFE1882846FFF759FF2389AB
:101BA0003A4631462846FFF712FFE1882846FFF7FC
:101BB00001FF13E02389A28861882846FFF707FF09
:101BC000E1882846FFF7F6FE23893A463146284643
:101BD000FFF747FFE1882846FFF73AFFBDE8F081AD
:101BE0000A884B881A438B881A43CB881A430B897F
:101BF0001A434B891A438B891A43A0F84420704733
:101C00004FF6FF71818000210180C1804180017207
:101C100070470021018041808180C1800181418124
:101C20008181C18170470021018041800121818033
:101C30000021C180018170470021018041808180A5
:101C4000C18001814181818170470000002C0140E9
:101C5000003401400004004000080040000C004037
:101C600021B1028842F00102028004E002884FF6AE
:101C7000FE731A400280704731B1B0F8442042F43C
:101C80000042A0F8442005E0B0F84420C2F30E0260
:101C9000A0F8442070471AB183890B43838102E086
:101CA00083898B43838170478182704741EA0203B5
:101CB000A0F8483070471AB183890B43838102E052
:101CC00083898B438381704701894FF6F8721140F5
:101CD000018170470A46002101894FF68F73194030
:101CE00011430181704730B504460D462946204610
:101CF000FFF7F0FF208940F00700208130BD2DE97B
:101D0000F04104460D4616461F46602D06D13B465F
:101D1000012231462046FFF75AFE05E03B460122EC
:101D200031462046FFF79DFE29462046FFF7D2FFA9
:101D3000208940F007002081BDE8F08130B50C46D5
:101D400000210189C9B24FF6FF7505EA0325154345
:101D500025432943018130BD2DE9F04105460E465A
:101D600017469846002443463A4631462846FFF730
:101D7000E5FF2C894FF6F870044044F007044FF655
:101D80008F70044044F070042C81BDE8F081F0B500
:101D900004460D4616461F463B4632462946204617
:101DA000FFF7CCFF208940F480402081F0BD018501
:101DB000828270470A46002101884FF68F731940CE
:101DC000114301807047F0B50C4615461E460021B0
:101DD000002200230189028B038C4FF6F8773940EB
:101DE00021434FF6FC473A4040F201173A434FF681
:101DF000DD773B404FF6FF7707EA06172F433B435B
:101E0000018102830384F0BD0A460021018B4FF655
:101E10008F7319401143018370470A460021018BDB
:101E200048F6FF7319404FF6FF7303EA0223194384
:101E3000018370470A460021818B4FF68F7319404A
:101E40001143818370470A460021818B48F6FF7356
:101E500019404FF6FF7303EA022319438183704749
:101E600021B1028842F08002028004E002884FF62D
:101E70007F731A400280704721B1828842F00402C9
:101E8000828004E082884FF6FB731A40828070479C
:101E900021B1828842F00802828004E082884FF6F5
:101EA000F7731A408280704721B1828842F00102A4
:101EB000828004E082884FF6FE731A408280704769
:101EC0000A460021018B4FF6F77319401143018335
:101ED00070470A460021018B4FF2FF7319404FF6FD
:101EE000FF7303EA02231943018370470A46002166
:101EF000818B4FF6F77319401143818370470A466F
:101F00000021818B4FF2FF7319404FF6FF7303EAF4
:101F100002231943818370470A460021018B4FF643
:101F2000FB7319401143018370470A460021018B5E
:101F30004FF6FF3319404FF6FF7303EA02231943AC
:101F4000018370470A460021818B4FF6FB731940CD
:101F50001143818370470A460021818B4FF6FF337E
:101F600019404FF6FF7303EA022319438183704738
:101F70000A460021018B4FF67F73194011430183FC
:101F800070470A460021018BC1F30E014FF6FF7323
:101F900003EA02231943018370470A460021818B1B
:101FA0004FF67F7319401143818370470A46002121
:101FB000818BC1F30E014FF6FF7303EA022319432D
:101FC000818370470A460021018C4FF6FD7319404A
:101FD0001143018470470A460021018C4FF6F773C4
:101FE00019401143018470470A460021018C4FF6C5
:101FF000DF7319404FF6FF7303EA0213194301849C
:1020000070470A460021018C4FF67F7319404FF646
:10201000FF7303EA02131943018470470A46002143
:10202000018C4FF6FF5319404FF6FF7303EA02236A
:102030001943018470470A460021018C4FF2FF7357
:1020400019404FF6FF7303EA0223194301847047D6
:102050000A460021018C4DF6FF7319404FF6FF73BD
:1020600003EA023319430184704730B50023012489
:102070008C40A3B2048C9C430484048C02FA01F5C6
:10208000ADB22C43048430BD30B5002304248C4011
:10209000A3B2048C9C430484048C02FA01F5ADB213
:1020A0002C43048430BD70B503460020002418463C
:1020B000183001258D40ACB21D8CA5431D8409B19B
:1020C000082909D100EB6100056825F0700505605D
:1020D0000568154305600EE00D1FC5F34E05284445
:1020E000056825F4E045056005684FF6FF7606EAC9
:1020F00002263543056070BD21B1028842F002021C
:10210000028004E002884FF6FD731A400280704797
:1021100021B1028842F00402028004E002884FF6F6
:10212000FB731A400280704721B1828842F080021E
:10213000828004E082884FF67F731A408280704765
:1021400002884FF6F7731A40028002880A43028021
:10215000704782884FF68F731A40828082880A43C4
:102160008280704702894FF6F8731A400281028913
:102170000A430281704702894FF67F731A40028139
:1021800002890A43028170478184704781857047C4
:10219000818670470187704781877047A0F840109B
:1021A000704702884FF6FF431A40028002880A43B4
:1021B000028070470146888E70470146088F70473D
:1021C0000146888F70470146B1F8400070470146CC
:1021D000888C70470146088D704702460020138A9C
:1021E0000B400BB1012000E000207047CA4302827F
:1021F000704730B50246002000230024158A05EA06
:102200000103958905EA010413B10CB1012000E036
:10221000002030BDCA4302827047000010B504465A
:10222000FB48844209D101218803FFF79FF8002170
:102230004FF48040FFF79AF832E0F648844209D123
:1022400001214804FFF79FF800214FF40030FFF709
:102250009AF825E0F048844209D101218804FFF76B
:1022600092F800214FF48020FFF78DF818E0EB483A
:10227000844209D10121C804FFF785F800214FF4F9
:102280000020FFF780F80BE0E548844208D10121E7
:102290000805FFF778F800214FF48010FFF773F876
:1022A00010BD2DE9F04786B005460E460024A24633
:1022B00000BFA1460027B08900B100BF2F462C8A7D
:1022C0004CF6FF700440F08804432C82AC894EF633
:1022D000F3100440B08831890843718908430443EE
:1022E000AC81AC8A4FF6FF400440B0890443AC8215
:1022F00001A8FEF7B4FFC648874202D1DDF810A05E
:1023000001E0DDF80CA0A88900F4004040B10AEB20
:10231000CA0000EB0A1031684900B0FBF1F807E091
:102320000AEBCA0000EB0A1031688900B0FBF1F833
:102330006420B8FBF0F004012009642101FB10893E
:10234000A88900F4004040B1322000EBC900B0FB86
:10235000F1F000F00700044308E0322000EB091020
:102360006421B0FBF1F000F00F0004432C8106B0B3
:10237000BDE8F0874FF41651016000218180C180D3
:1023800001810C21418100218181704710B50246F5
:102390000020108A4FF2FF0318400B884C8823431B
:1023A0008C882343CC8823431843108210BD00211E
:1023B000018041808180C180704721B1828942F4CF
:1023C0000052828104E082894DF6FF731A408281B7
:1023D0007047F0B50346002400260025002040F693
:1023E0006A17B94200D100BF1846C1F3421401F088
:1023F0001F06012707FA06F5012C01D10C3004E075
:10240000022C01D1103000E014301AB107682F43BC
:10241000076002E00768AF430760F0BD1AB1838A26
:102420000B43838202E0838A8B4383827047028A54
:102430004FF6F0731A400282028A0A430282704702
:1024400082894FF2FF731A40828182890A43828116
:10245000704721B1828942F00202828104E08289C0
:102460004FF6FD731A4082817047028A4FF6DF7380
:102470001A400282028A0A430282704721B1028A0C
:1024800042F48042028204E0028A4BF6FF731A4053
:1024900002827047C1F30802828070470146888833
:1024A000C0F308007047818941F0010181817047C4
:1024B000028BD2B20283028B42EA0122028370476E
:1024C000028B02F47F420283028B0A43028370472D
:1024D00021B1828A42F02002828204E0828A4FF691
:1024E000DF731A408282704721B1828A42F0100263
:1024F000828204E0828A4FF6EF731A40828270472C
:1025000021B1828A42F00802828204E0828A4FF678
:10251000F7731A408282704721B1828942F40042E7
:10252000828103E08289C2F30E028281704721B169
:10253000828A42F40062828204E0828A4FF2FF7350
:102540001A4082827047828A4FF6FB731A40828259
:10255000828A0A438282704721B1828A42F0020253
:10256000828204E0828A4FF6FD731A4082827047AD
:1025700002460020B1F5007F00D100BF13880B4058
:102580000BB1012000E00020704701F40072B2F5A9
:10259000007F00D100BFCA430280704770B5024679
:1025A000002400230025002040F66A16B14200D125
:1025B00000BFC1F3421501F01F03012606FA03F321
:1025C000012D02D19689334006E0022D02D1168AF0
:1025D000334001E0968A33400C12012606FA04F4D7
:1025E0001688344013B10CB1012000E0002070BD0A
:1025F00010B50022002340F66A14A14200D100BFAA
:102600000A1201249440A3B2DC43048010BD0000F0
:10261000003801400044004000480040004C0040A9
:10262000005000400948804709480047FEE7FEE7A0
:10263000FEE7FEE7FEE7FEE7FEE7FEE7FEE7FEE772
:1026400004480549054A064B704700002905000863
:1026500031010008B8060020B80C0020B80800209E
:10266000B808002008B501210920FEF765FE012108
:102670002848FEF756FC3820ADF8000010208DF8F1
:10268000030003208DF8020069462348FEF778FB1B
:1026900038212148FEF721FC08BD10B520211E4835
:1026A000FEF71DFC4FF47A7002F0F5F810211A487D
:1026B000FEF715FC4FF47A7002F0EDF80821164889
:1026C000FEF70DFC4FF47A7002F0E5F810BD08B586
:1026D00001210420FEF730FE4FF48050ADF80000D9
:1026E00010208DF8030003208DF8020069460B4886
:1026F000FEF746FB4FF480510848FEF7EEFB4FF41F
:102700007A7002F0C8F84FF480510448FEF7E7FBF6
:1027100008BD000000023000000C0140000801402C
:1027200070B505460C4645F25550FEF777FC284635
:10273000FEF777FC2046FEF777FCFEF778FCFEF705
:102740007BFC70BD10B5FEF772FC10BD7FB5054671
:102750000C4601210220FEF7FCFDADF80850ADF853
:1027600004400020ADF80A00ADF8060001A92B488E
:10277000FEF71AFF012211462848FFF78CFA1D20A8
:102780008DF8000000208DF8010003208DF8020074
:1027900001208DF803006846FDF74BFF00211F481C
:1027A000FFF75EFA7FBD7FB505460C460121042088
:1027B000FEF7CFFDADF80850ADF804400020ADF8AD
:1027C0000A00ADF8060001A91548FEF7EDFE01224A
:1027D00011461348FFF75FFA1E208DF80000032012
:1027E0008DF801008DF8020001208DF80300684685
:1027F000FDF71FFF01210A48FFF732FA7FBD10B530
:1028000001210648FFF7F5FC06490968884203D014
:1028100001210248FFF7FEFC10BD0000000400404B
:10282000000800409801224208B5FA4802F080FAF8
:10283000F9A1F84802F06EFDFA4908600846006800
:1028400048B1F9A04FF6FF734FF478420A21009087
:10285000102001F094F84FF4967002F01CF800205C
:10286000EC49C1F804014FF48071EA4802F0A5FD7B
:10287000FFF768FF08BD08B5EFA002F065FAF3A006
:1028800002F083F94FF4967002F005F8E14802F087
:102890004FFAF0A1DF4802F03DFDE2490860FFF782
:1028A000C3FF1BE0ECA04FF6FF734FF478420A2100
:1028B0000090102001F063F8EBA002F045FAFFF75A
:1028C000B3FFE2A002F061F94FF4967001F0E3FF6C
:1028D000E0A1D04802F01EFDD2490860D14800684E
:1028E0000028DFD0E7A04FF6FF734FF478420A21AB
:1028F0000090102001F043F8E6A002F025FAEDA0C8
:1029000002F043F94FF4967001F0C5FFFFF78CFF1A
:10291000EAA002F03AF94FF4967001F0BCFFEAA188
:10292000BC4802F0F7FCBF4908600EE0FFF77CFFEF
:10293000E2A002F02AF94FF4967001F0ACFFE2A198
:10294000B44802F0E7FCB7490860B64800680028C0
:10295000ECD0B0490831DDA002F0F6F9FFF764FFD2
:10296000DFA04FF6FF734FF478420A210090102049
:1029700001F005F8DEA002F008F94FF4967001F0BE
:102980008AFFDEA1A34802F0C5FCA6490860FFF754
:102990004BFF0EE0FFF748FFD5A002F0F6F84FF42A
:1029A000967001F078FFD5A19A4802F0B3FC9D49DA
:1029B00008609C4800680028ECD0D3A04FF6FF7355
:1029C0004FF478420A210090102000F0D8FFFFF762
:1029D0002BFFD1A002F0D9F84FF4967001F05BFF05
:1029E000D0A18C4802F096FC8E4908600846006829
:1029F00020B188490E31CDA002F0A6F9FFF7A2FE62
:102A000008BD10B5D3A002F0C0F8642001F043FF68
:102A1000D4A002F0BAF8642001F03DFFD5A002F086
:102A2000B4F8642001F037FFFFF7FEFEFFF78AFEDF
:102A300010BD08B5D3A04FF6FF731F221E210090D2
:102A4000002000F09CFFD3A04FF6FF731F2232211D
:102A50000090002000F093FFD1A04FF6FF731F22DB
:102A600032210090582000F08AFFCFA04FF6FF736C
:102A70004FF478420A210090102000F080FF4FF4BC
:102A80008071CD4802F077FCC5A3BEA2CBA1CA4895
:102A900002F066F9C84802F078F84FF4967001F039
:102AA000FAFECFA15B4802F035FC5E49086008469B
:102AB000006850B1CEA04FF6FF734FF478420A2160
:102AC0000090102000F05BFF08BDCDA1514802F03E
:102AD00021FC544908600020CD49086015E0CC482D
:102AE0000068401CCA490860C5A14A4802F012FCAF
:102AF0004C490860642001F0CEFEC5480068642897
:102B000003DD0020C249086003E046480068002851
:102B1000E5D000BFBFA04FF6FF734FF478420A2103
:102B20000090102000F02BFFFFF77EFE00BFCBE7E8
:102B300038B504460D46BBA04FF6FF734FF47842FC
:102B40000A210090102000F01AFF4FF480719A487B
:102B500002F011FC2246B7A1974802F001F996480D
:102B600002F013F84FF4967001F095FEB6A12948D3
:102B700002F0D0FB2B49086012E0A5480068401C19
:102B8000A3490860B0A1234802F0C4FB25490860AE
:102B90009F480068642803DD00209D49086003E029
:102BA000204800680028E8D000BF284601F0EDFF6B
:102BB0004FF4967001F06FFEA4A1164802F0AAFB34
:102BC0001849086008460068C8B1A2480068401C5F
:102BD000A0490860A0A04FF6FF734FF478420A2185
:102BE0000090102000F0CBFE9A480068032805DD15
:102BF000012080F3138800BF00F00EFC38BD9AA1BD
:102C0000044802F087FB07490860002080490860FB
:102C100045E10000480400202B514D5452454356D5
:102C20003A000000280000205245434549564520FF
:102C30004441544100000000737461727420696E55
:102C40006974204543323030580D0A0041544531F3
:102C50000D0A00004F4B0000434F4E4E4543542099
:102C600034472E2E00000000B5A5C6ACBBFAD5FD3A
:102C7000D4DAC1ACBDD3C4A3BFE92E2E2E2E2E2E86
:102C80000D0A0000434F4E4E454354205B4F4B5DB1
:102C9000000000002A2A2A2AB5A5C6ACBBFABACD84
:102CA000C4A3BFE9C1ACBDD3B3C9B9A62A2A2A2A95
:102CB0002A0D0A004154490D0A00000041542B43DB
:102CC000494D490D0A00000034363000CED2B5C45B
:102CD000BFA8BAC5CAC7203A202573200D0A000034
:102CE00053494D43415244205B4F4B5D000000006F
:102CF00041542B43474154543F0D0A002B43474155
:102D000054543A203100000052454749535445522B
:102D10005B4F4B5D0000000041542B4353510D0AA3
:102D2000000000002B4353513A000000D0C5BAC543
:102D3000D6CAC1BFCAC73A257320D7A2D2E2A3BA66
:102D4000D0C5BAC5D7EEB4F3D6B5CAC73331200D56
:102D50000A00000041542B5149434C4F53453D302C
:102D60000D0A000041542B5149434C4F53453D310E
:102D70000D0A000041542B5149434C4F53453D32FD
:102D80000D0A00003130312E3230302E3231322EE9
:102D90003233340053455256455220504F5254005E
:102DA000313030310000000053455256455220204A
:102DB0005B2E2E5D00000000BF00002041542B510F
:102DC000494F50454E3D312C302C22544350222C3B
:102DD000222573222C25732C302C310D0A00000083
:102DE0002B51494F50454E3A20302C353636000095
:102DF00053455256455220205B4E4F5D0000000067
:102E00002B51494F50454E3A20302C3000000000E5
:102E10003000002053455256455220205B4F4B5DF9
:102E20000000000053454E4420444154412E2E2EB4
:102E30000000000041542B514953454E443D302C75
:102E400025640D0A000000003E0000004552524F6C
:102E5000520000003400002053454E4420444154A9
:102E600041204E4F0000000053454E44204F4B0080
:102E7000FB480068401CFA490860AFF21401F948A9
:102E800002F048FAF8490860642001F004FDF448B3
:102E90000068642803DD0020F149086003E0F2487F
:102EA00000680028E4D000BFFFF7BEFCEFA04FF69B
:102EB000FF734FF478420A210090102000F05FFD6C
:102EC00000BF9BE638B505460C46AFF2A8004FF6AA
:102ED000FF734FF478420A210090102000F04FFD5C
:102EE0004FF48071E54802F046FAE5A3E6A2E9490D
:102EF000E248009401F034FFE049E7A001F024FF2C
:102F0000DE4801F042FE4FF4967001F0C4FCE6A1E9
:102F1000D44802F0FFF9D449086005E0E2A1D148A5
:102F200002F0F8F9D0490860CF4800680028F5D0D1
:102F3000FFF77AFCCDA04FF6FF734FF478420A21D9
:102F40000090102000F01BFD38BD10B5C4B04FF448
:102F5000807104A802F031FA002002900390AFF2D1
:102F60004831C04802F0D6F9BF49086008460068F9
:102F7000002833D04FF4807104A802F01EFA04AA8E
:102F8000CDA1B84802F092F804A9D8A001F0DCFE67
:102F9000FFF74AFCAFF270304FF6FF734FF4784200
:102FA0000A210090102000F0EAFC0020029003901B
:102FB00004A801F033FB08B1D0A001E0AFF26C30FF
:102FC00004462346CFA2082102A801F0DFFE02A892
:102FD00002F0B2F9044602A9FFF774FF44B010BD35
:102FE000F8B5002400260025C7A001F0CEFD4FF45F
:102FF000967001F050FCFFF717FCC7A001F0C5FD6B
:103000004FF4967001F047FCFFF70EFC4FF480710F
:103010009A4802F0B0F9C4A099A39BA2CBA100905A
:10302000964801F09DFE95499BA001F08DFE9348C6
:1030300001F0ABFD4FF4967001F02DFCAFF2EC31D6
:10304000884802F067F98849086006E0AFF2FC3171
:10305000844802F05FF984490860834800680028CA
:10306000F4D0FFF7E1FB002584E000244FF48071E9
:10307000824802F080F940F25B70BEA3C9A24FF40F
:10308000807100907D4801F081FE7C4982A001F0B2
:103090005BFE7A4801F079FD4FF4967001F0FBFB7E
:1030A000C6A1704802F036F96F49086022E0641C3E
:1030B0001E2001F0F0FBC1A16A4802F02BF96A4919
:1030C000086042F21070844213D14FF48051BF481F
:1030D000FDF703FF4FF47A7001F0DDFB4FF48051F0
:1030E000BA48FDF7FCFE4FF4967001F0D4FB00F0F7
:1030F00093F900BF5C48006818B942F2107084422E
:10310000D5DDFFF791FB4FF480715C4802F033F995
:103110005BA2AFA1594801F023FE58495EA001F01F
:1031200013FE564801F031FD4FF4967001F0B3FBE9
:10313000ACA14C4802F0EEF84B4908600FE0641C6B
:103140001E2001F0A8FBA7A1464802F0E3F846497B
:10315000086042F21070844200D100E000BF424893
:10316000006818B942F210708442E8DDFFF75CFB9A
:1031700001266D1C032D02DA002E3FF476AFF8BD58
:1031800038B505460C46AFF264304FF6FF734FF486
:1031900078420A210090102000F0F1FB4FF480717A
:1031A000364802F0E8F836A337A292493348009433
:1031B00001F0D6FD314938A001F0C6FD2F4801F0DD
:1031C000E4FC4FF4967001F066FB37A1254802F04D
:1031D000A1F82549086005E033A1224802F09AF8D9
:1031E00021490860204800680028F5D0FFF71CFB43
:1031F0001EA04FF6FF734FF478420A210090102072
:1032000000F0BDFB38BD08B5FFF70EFB4FF4807131
:10321000794802F0B0F879A001F0B7FC4FF496704D
:1032200001F039FB78A10F4802F074F80E490860EC
:103230000846006890B10F220846016808316E48C0
:1032400002F0E2F86C484FF6FF734FF478425A21CF
:103250000090002000F093FB674808BDDAE0000012
:1032600030000020480400202800002053454E4430
:103270002044415441204F4B00000000BF0000207B
:10328000746573740000000069637437314E6376AF
:1032900052623100749300084154535452203D202F
:1032A0002573200D0A0000002B514D545055423A11
:1032B00020302C312C3000000D0A2B514D5452453A
:1032C00043563A20302C302C222F69637437314E0C
:1032D00063765262312F746573742F757365722F24
:1032E000676574222C22255B5E225D006765742071
:1032F0006D73672069732025730D0A004661696C40
:10330000000000002573000041542B514D544449E6
:1033100053433D300D0A000041542B514D54434C52
:103320004F53453D300D0A00333031316162623315
:1033300039613836396364663764323964396662B4
:1033400061616333393735340000000041542B513B
:103350004D544346473D22414C4941555448222C47
:10336000302C222573222C222573222C2225732215
:103370000D0A0000696F742D30367A303064616157
:10338000326A723867706A2E6D7174742E696F7448
:103390006875622E616C6979756E63732E636F6DEB
:1033A0000000000041542B514D544F50454E3D30CC
:1033B0002C222573222C25640D0A00002B514D541C
:1033C0004F50454E3A20302C30000000000801409C
:1033D00041542B514D54434F4E4E3D302C222573BA
:1033E000220D0A002B514D54434F4E4E3A20302CA3
:1033F000302C300014930008BF01002041542B43AF
:1034000047534E3D310D0A002B4347534E3A20227D
:1034100000000000002008BD0648006800F4E060DD
:1034200005490843001D03490860BFF3408F00BFF2
:10343000FEE700000CED00E00000FA0530B50146A3
:1034400001F01F04C1F34513CA0AE50205EB431559
:103450001544A8B230BD2DE9F04706460F46904608
:103460009A46002445464FEA4800C0F103094AE065
:103470007A1991B2321990B2524600F062FE7A196E
:1034800091B2321B90B2524600F05BFE7A1B91B2B1
:10349000321990B2524600F054FE7A1B91B2321BA0
:1034A00090B2524600F04DFE3A1991B2721990B2A4
:1034B000524600F046FE3A1991B2721B90B2524643
:1034C00000F03FFE3A1B91B2721990B2524600F0E2
:1034D00038FE3A1B91B2721B90B2524600F031FE98
:1034E000B9F1000F05DA042000FB049000F1060991
:1034F00007E0601B042101FB009000F10A09681E2F
:1035000085B2601C84B2AC42B2DBAC4237D17A19CE
:1035100091B2321990B2524600F013FE7A1991B26C
:10352000321990B2524600F00CFE7A1B91B2321959
:1035300090B2524600F005FE7A1B91B2321B90B257
:10354000524600F0FEFD3A1991B2721990B25246FD
:1035500000F0F7FD3A1991B2721B90B2524600F09A
:10356000F0FD3A1B91B2721990B2524600F0E9FD9B
:103570003A1B91B2721B90B2524600F0E2FDBDE8D8
:10358000F0872DE9FF4F83B0804689464946404683
:1035900000F0CDFD0598A0EB08050698A0EB090604
:1035A000002D02DB0120029003E04FF0FF3002907B
:1035B0006D42002E02DB0120019003E04FF0FF304E
:1035C000019076424FEA450A4FEA460BB54219DDB3
:1035D000ABEB0504002712E049464046109A00F084
:1035E000B0FD002C05DBA4EB0A04019848441FFA47
:1035F00080F95C44029840441FFA80F87F1CAF4277
:10360000EADD18E0AAEB0604002712E0494640462E
:10361000109A00F096FD002C05DBA4EB0B04029839
:1036200040441FFA80F85444019848441FFA80F936
:103630007F1CB742EADD07B0BDE8F08F2DE9F84303
:1036400005460C4616461F46DDF820804EF67D7076
:103650000090A81982B2234621462846FFF791FF21
:1036600042F6651004F1010CBC441FFA8CF305EB23
:10367000060CACF1010C1FFA8CF204F1010C1FFADC
:103680008CF105EB060CACF1010C00901FFA8CF0EC
:10369000FFF777FF42F665100090E01983B2A81992
:1036A00082B2E01981B22846FFF76BFF4EF67D70BB
:1036B0000090E01983B22A4621462846FFF761FFB1
:1036C00004F1010CBC44ACF1020C1FFA8CF305F1BF
:1036D000010CB444ACF1020C1FFA8CF204F1010CA1
:1036E0001FFA8CF105F1010C1FFA8CF0CDF8008067
:1036F000FFF747FFBDE8F8832DE9F84305460C4680
:1037000016461F46DDF82080B8F1000F39D14EF67D
:103710007D700090A81982B2234621462846FFF703
:1037200030FF42F6651004F1010CBC441FFA8CF323
:1037300005EB060CACF1010C1FFA8CF204F1010C44
:103740001FFA8CF105EB060CACF1010C00901FFA8E
:103750008CF0FFF716FF42F665100090E01983B277
:10376000A81982B2E01981B22846FFF70AFF4EF687
:103770007D700090E01983B22A4621462846FFF763
:1037800000FFB8F1010F39D142F665100090A81979
:1037900082B2234621462846FFF7F3FE4EF67D709F
:1037A00004F1010CBC441FFA8CF305EB060CACF1E0
:1037B000010C1FFA8CF204F1010C1FFA8CF105EBDD
:1037C000060CACF1010C00901FFA8CF0FFF7D9FE4B
:1037D0004EF67D700090E01983B2A81982B2E0190C
:1037E00081B22846FFF7CDFE42F665100090E01941
:1037F00083B22A4621462846FFF7C3FEB8F1020FDE
:1038000039D14FF6FF700090A81982B223462146A5
:103810002846FFF7B6FE4FF6FF7004F1010CBC44DA
:103820001FFA8CF305EB060CACF1010C1FFA8CF2BD
:1038300004F1010C1FFA8CF105EB060CACF1010C44
:1038400000901FFA8CF0FFF79CFE4FF6FF7000907F
:10385000E01983B2A81982B2E01981B22846FFF7B5
:1038600090FE4FF6FF700090E01983B22A46214681
:103870002846FFF786FEBDE8F883F8B504460D46F6
:1038800016461F4644F208202B4632462946009031
:103890002046FFF776FE48F210406A1C93B291B2C0
:1038A000621C009090B23246FFF76BFE44F2082093
:1038B0003B462246294600902046FFF762FE48F22A
:1038C0001040631C9AB26B1C99B2631C009098B2B2
:1038D0003B46FFF756FE4FF6FF703B4632463946F1
:1038E00000902046FFF74DFE4FF6FF703B463246F4
:1038F000294600903046FFF744FEF8BDF8B506466D
:103900000F4614461D464FF6FF703B462246394689
:1039100000903046FFF735FE4FF6FF702B463246DB
:10392000394600903046FFF72CFE48F210406A1EE0
:1039300093B291B2721C009090B22246FFF721FE22
:1039400044F208202B462246294600903046FFF7D5
:1039500018FE48F21040631E9AB27B1C99B2631E97
:10396000009098B22B46FFF70CFE44F208202B463D
:103970002246394600902046FFF703FEF8BD2DE9A8
:10398000F84F0746884693469A46DDF828900097F8
:10399000B3E099F8000080283DDA99F800600D2E18
:1039A00005D1009F08F110001FFA80F830E0202EAA
:1039B00003DDA6F1200086B200E00026002422E00C
:1039C00000251CE004EB0610E849085C8021294131
:1039D000084040B108EB040291B27A1990B25A46FD
:1039E00000F0AFFB09E0D34507D008EB040291B229
:1039F0007A1990B2524600F0A4FB681CC5B2082D9B
:103A0000E0DB601CC4B2102CDADB07F1080087B2DF
:103A100009F1010971E0002668E006EB0610D449BF
:103A200011F8100099F8001088425DD106EB0610DD
:103A3000CF4901EB4000407899F80110884253D1FA
:103A400000244FE0002520E006EB0610C84901EBFA
:103A50004000801C10F8141080202841014041B122
:103A600008EB040291B27A1990B25A4600F069FB51
:103A700009E0D34507D008EB040291B27A1990B25D
:103A8000524600F05EFB681CC5B2082DDCDB002549
:103A900024E006EB0610B64901EB4000801C012132
:103AA00001EB4401405C80212941084048B108EB0A
:103AB000040291B27A19083290B25A4600F041FBE2
:103AC0000AE0D34508D008EB040291B27A19083213
:103AD00090B2524600F035FB681CC5B2082DD8DB09
:103AE000601CC4B2102CADDB701C86B2322E94DB8D
:103AF00009F1020907F1100087B299F800000028C7
:103B00007FF447AFBDE8F88F2DE9F05F06468846A1
:103B100093469A46DDF82890E2E099F80000802864
:103B200035DA99F80070202F03DDA7F1200087B265
:103B300000E00027002522E000241CE005EB071030
:103B40008A49095C80202041014041B108EB05020F
:103B500091B2321990B25A4600F0F3FA09E0D34517
:103B600007D008EB050291B2321990B2524600F02C
:103B7000E8FA601CC4B2082CE0DB681CC5B2102D4A
:103B8000DADB09F1010906F1080086B2A8E0002796
:103B90009EE007EB870000EB4710764911F8100014
:103BA00099F8001088427CD107EB870000EB4710A2
:103BB000704901EB4000407899F801108842F2D139
:103BC000002580E0002423E007EB870000EB47108E
:103BD000684901EB4000801C05EB4501405C8021F9
:103BE0002141084040B108EB050291B2321990B270
:103BF0005A4600F0A6FA09E0D34507D008EB0502C3
:103C000091B2321990B2524600F09BFA601CC4B2D5
:103C1000082CD9DB002426E007EB870000EB4710D7
:103C2000544901EB4000801C05EB4501491C405CF8
:103C300080212141084048B108EB050291B23219B8
:103C4000083290B25A4600F07CFA0AE0D34508D018
:103C500008EB050291B23219083290B2524600F0D8
:103C600070FA601CC4B2082CD6DB002427E007EBF6
:103C7000870000EB47103F4901EB4000801C05EB3B
:103C80004501891C405C80212141084050B108EB6E
:103C9000050291B23219103290B25A4600F051FA30
:103CA0000BE013E0D34508D008EB050291B23219BE
:103CB000103290B2524600F044FA601CC4B2082C94
:103CC000D5DB681CC5B2182DFFF67CAF781C87B217
:103CD000142FFFF65EAF09F1020906F1180086B253
:103CE00099F8000000287FF418AFBDE8F09F2DE997
:103CF000F05F0746884692469946002531E0002449
:103D00002BE01D490A9801EBC01000EB850010F86C
:103D100004B000261DE08020304100EA0B0050B1C5
:103D200008EB050291B207EBC402324490B252464E
:103D300000F007FA0BE0CA4509D008EB050291B282
:103D400007EBC402324490B24A4600F0FAF9701C04
:103D5000C6B2082EDFDB601CC4B2042CD1DB681CA9
:103D6000C5B2202DCBDBBDE8F09F0000FC7700083A
:103D70006E850008568C0008ED7D000808B501210D
:103D80000820FDF7D9FA0320ADF800008DF80200F5
:103D900010208DF803006946F848FCF7F1FF012177
:103DA0000420FDF7C9FAA020ADF8000003208DF82B
:103DB000020010208DF803006946F148FCF7E0FF8F
:103DC00001211020FDF7B8FA3020ADF800000320E3
:103DD0008DF8020010208DF803006946E948FCF7D1
:103DE000CFFF08BD0021082115E000F0800222B1BC
:103DF0008022E34B10331A6003E08022E04B14333F
:103E00001A602022DE4B14331A601B1F1A60420610
:103E1000100E4A1ED1B20029E7DC704710B50446E7
:103E20001020D84948610220D44914310860204646
:103E3000FFF7D8FF1020D349086110BD10B5044624
:103E40001020D04948610220CC491031086020463A
:103E5000FFF7C8FF1020CB49086110BD10B504461C
:103E60001020C84948610220C4491031086020125E
:103E7000FFF7B8FFE0B2FFF7B5FF1020C1490861B6
:103E800010BD30B505460C462846FFF7C7FF204653
:103E9000FFF7D4FF30BD10B50120B84914310860D8
:103EA000642000F0F8FC0120B44910310860322091
:103EB00000F0F1FC10BD10B5FFF760FFFFF7EBFF5E
:103EC0001120FFF7ABFF782000F0E5FCB120FFF7F1
:103ED000A5FF0120FFF7B2FF2C20FFF7AFFF2D2039
:103EE000FFF7ACFFB220FFF799FF0120FFF7A6FF15
:103EF0002C20FFF7A3FF2D20FFF7A0FFB320FFF733
:103F00008DFF0120FFF79AFF2C20FFF797FF2D2050
:103F1000FFF794FF0120FFF791FF2C20FFF78EFFA2
:103F20002D20FFF78BFFB420FFF778FF0720FFF766
:103F300085FFC020FFF772FFA220FFF77FFF02205E
:103F4000FFF77CFF8420FFF779FFC120FFF766FFB2
:103F5000C520FFF773FFC220FFF760FF0A20FFF7BD
:103F60006DFF0020FFF76AFFC320FFF757FF8A208D
:103F7000FFF764FF2A20FFF761FFC420FFF74EFF21
:103F80008A20FFF75BFFEE20FFF758FFC520FFF701
:103F900045FF0E20FFF752FF3620FFF73FFFC020FE
:103FA000FFF74CFFE020FFF739FF0F20FFF746FF38
:103FB0001A20FFF743FF0F20FFF740FF1820FFF7FD
:103FC0003DFF2F20FFF73AFF2820FFF737FF202083
:103FD000FFF734FF2220FFF731FF1F20FFF72EFFEE
:103FE0001B20FFF72BFF2320FFF728FF3720FFF7C9
:103FF00025FF0020FFF722FF0720FFF71FFF022009
:10400000FFF71CFF1020FFF719FFE120FFF706FF65
:104010000F20FFF713FF1B20FFF710FF0F20FFF704
:104020000DFF1720FFF70AFF3320FFF707FF2C20B3
:10403000FFF704FF2920FFF701FF2E20FFF7FEFE08
:104040003020FFF7FBFE3020FFF7F8FE3920FFF7A6
:10405000F5FE3F20FFF7F2FE0020FFF7EFFE0720FE
:10406000FFF7ECFE0320FFF7E9FE1020FFF7E6FE66
:104070002A20FFF7D3FE0020FFF7E0FE0020FFF725
:10408000DDFE0020FFF7DAFE7F20FFF7D7FE2B20B2
:10409000FFF7C4FE0020FFF7D1FE0020FFF7CEFEA1
:1040A0000020FFF7CBFE9F20FFF7C8FEF020FFF7B0
:1040B000B5FE0120FFF7C2FEF620FFF7AFFE00209D
:1040C000FFF7BCFE3A20FFF7A9FE0520FFF7B6FE7A
:1040D0002920FFF7A3FE10BDF0B504460D46164695
:1040E0001F462A20FFF79AFE0020FFF7A7FEA11C1B
:1040F000C8B2FFF7A3FE0020FFF7A0FEB11CC8B2B4
:10410000FFF79CFE2B20FFF789FE0020FFF796FEAD
:10411000691CC8B2FFF792FE0020FFF78FFE791CE2
:10412000C8B2FFF78BFE2C20FFF778FEF0BD30B54C
:1041300004460D462B46224629462046FFF7CCFF73
:1041400030BD70B504460D461646681C83B2601C2F
:1041500082B229462046FFF7BFFF3046FFF77EFEBA
:1041600070BD60B505460E4631462846FFF7DFFFB5
:10417000E0B2FFF763FE204660BD0000000C014086
:10418000000801400010014070B506469F237F22C1
:1041900000210846FFF7A0FF2C20FFF73FFE002478
:1041A00008E0002503E03046FFF758FE6D1CA02D07
:1041B000F9D3641C802CF4D370BD000008B54EF612
:1041C0007D70FFF7E1FF87A04EF67D731F2200216F
:1041D00000901020FFF7D3FB86A04EF67D734FF4BE
:1041E0007842142100901020FFF7C9FB3A23712276
:1041F00026210F20FFF782FB82A04EF67D734FF63B
:10420000E072282100901020FFF7B9FB582371229B
:1042100044210F20FFF772FB7EA04EF67D731F2214
:10422000462100901020FFF7AAFB7623712262211D
:104230000F20FFF763FB7BA04EF67D734FF47842AF
:10424000642100901020FFF79AFB40F2DC5000F050
:1042500022FB08BDF8B500244EF67D70FFF794FFF1
:1042600074A04EF67D734FF4784214210090002024
:10427000FFF785FB4FF47A7000F00DFB4EF67D7072
:10428000FFF782FF00BF20E0032094FBF0F0400125
:10429000401D85B2032094FBF0F100FB114000EBC0
:1042A00080004FF6FF7101EAC0066748005D4EF6D8
:1042B0007D734FF47842294600903046FFF717FD92
:1042C000642000F0E8FA601CC4B20A2CDCDBF8BD04
:1042D00008B55EA04FF6FF731F221E21009010202C
:1042E000FFF74DFB5DA04FF6FF731F2232210090B8
:1042F0001020FFF744FB5DA04FF6FF734FF47842A8
:10430000462100901020FFF73AFB08BD38B5012484
:104310004EF67D70FFF738FF58A04EF67D731F22D2
:104320000A2100901420FFF72AFBC82000F0B3FAFE
:1043300011E04FF6FF70FFF727FF0020FFF724FF83
:104340004FF47840FFF720FF4FF4FC60FFF71CFFAD
:104350001F20FFF719FF2000A4F10101CCB2E8D122
:1043600038BD2DE9F04707464FF6FF70FFF70CFF09
:10437000022633E000252EE006EB860C4FEACC0C3B
:104380000CF1270C1FFA8CF305EB850C4FEACC0CD3
:104390000CF1270C1FFA8CF206EB860C4FEACC4C82
:1043A0004FEA1C4105EB850C4FEACC4C4FEA1C4010
:1043B000FFF792FE00240AE017F8149007EB440080
:1043C00090F8018049EA0820FFF748FD641CB4F525
:1043D000C86FF1DB6D1C032DCEDB761C042EC9DB10
:1043E000BDE8F087C8ABB6AFB5E7D7D3BCBCCAF55C
:1043F00000000000D2BABEA7B2E2CAD4B3CCD0F259
:1044000000000000D1D5C9ABCCEEB3E4B2E2CAD40F
:1044100000000000CEC4D7D6CFD4CABEB2E2CAD400
:1044200000000000CDBCC6ACCFD4CABEB2E2CAD434
:10443000000000003447204D4F44554C4520535454
:104440004152542E000000003800002053544D33D8
:104450003220344720475053000000005443502F6F
:10446000434F41502F4D515454000000C8ABB3CCC2
:10447000BCBCCAF5D6A7B3D600000000436F6C6F72
:10448000722054657374000010B5002400BF1BE057
:104490009F4901EB4410202100F08FFF9C4901EB64
:1044A000441023469BA2102100F070FC984800EBBA
:1044B000441004610020964901EB4411486194497D
:1044C00001EB44118861641C042CE1DB10BD70B564
:1044D0000546002400BF09E08D4901EB4410294640
:1044E00000F0BEFF08B9204670BD641C042CF3DB4D
:1044F0004FF0FF30F8E770B504460D4635B1012D99
:1045000009D1214686A000F01FFC05E0214688A0C5
:1045100000F01AFC00E000BF00BF002070BD7CB5B9
:1045200006460C4600200090019000250090019066
:10453000334678A20821684600F028FC22466946E6
:104540007FA000F001FC6846FFF7C1FF0546B5F10A
:10455000FF3F05D181A000F0F7FB4FF0FF307CBD9D
:10456000012C01DC002C05DA7CA000F0EDFB4FF003
:10457000FF30F4E7664800EB45104069A04205D1E2
:104580007CA000F0E1FB4FF0FF30E8E7604800EB73
:104590004510446121462846FFF7ADFF28B17BA0B6
:1045A00000F0D2FB4FF0FF30D9E70020D7E770B51D
:1045B00088B02021684600F000FF0025002420215B
:1045C000684600F0FAFE00BF0EE0514800EB4410D0
:1045D000406918B10120A040284303E00121A14017
:1045E00025EA01000546641C042CEEDB2B466CA278
:1045F0002021684600F0CAFB29466BA000F0A4FB0E
:10460000684600F099FE06466946FEF75BFC4FF4EB
:104610007A7000F040F9002008B070BD30B587B066
:104620000446002003900490059006900025FF208A
:104630000290681E0190204600F07EFE28B961A01D
:1046400000F082FB681E07B030BD214662A000F07A
:104650007BFB0020039004900590069001AB02AA1A
:1046600060A1204600F022FD0198B0F1FF3F07DA7B
:104670009DF80800B0F1FF3F02DA5CA000F064FB97
:104680009DF808000199FFF74AFF10B15BA000F008
:104690005BFB0020D7E77FB500240020009001904D
:1046A0000290039000BF2AE0194800EB44104069D3
:1046B000174901EB4411896988421FD0144800EB67
:1046C00044104069012819D1114800EB4410406999
:1046D0000F4901EB44118861002000900190029085
:1046E00003904CA34CA21021684600F04FFB684693
:1046F00000F022FE05466946FEF7E4FB641C042C2C
:10470000D2DB4FF47A7000F0C6F8002004B070BD20
:10471000C0020020646576696365256400000000BE
:1047200072656C6179202564206F6E210D0A00008E
:1047300072656C6179202564206F6666210D0A0020
:104740007374724E616D653D25732C776F726B5378
:1047500074617475733D25640D0A000063686563B8
:104760006B206D7367206E616D65206661696C21D9
:104770000D0A0000636865636B2073746174757360
:10478000206661696C210D0A0000000073657420C9
:1047900072656C6179206661696C0D0A0000000029
:1047A00030782578000000006765742064657669BC
:1047B00063652053746174757320697320307825A4
:1047C000780A0000676574206D736720696E666FF4
:1047D000206661696C210A006D7367203D20257396
:1047E0000D0A000025645F256400000067657420E1
:1047F0006D7367206661696C0A000000646F207346
:1048000065742066756E6374696F6E206661696C8D
:104810000A0000004F4B00002573000010B56FF038
:104820000400FBF750FF2E4800682E49B0FBF1F062
:104830002D4908700846007800EB4001C1EBC0101C
:104840004FF6FF7101EAC0002849088010BD0146FB
:10485000254A12784A434FF0E0235A6100229A61B8
:104860001A46126942F001021A6100BF4FF0E022BD
:10487000106900F001021AB100F48032002AF5D06C
:104880004FF0E022126922F001024FF0E0231A619A
:1048900000229A6170470146144A12884A434FF039
:1048A000E0235A6100229A611A46126942F001021D
:1048B0001A6100BF4FF0E022106900F001021AB146
:1048C00000F48032002AF5D04FF0E022126922F085
:1048D00001024FF0E0231A6100229A617047000044
:1048E0000000002000127A00420000204400002056
:1048F00010B54FF4A060FBF797FE10BD014600BF56
:10490000704700BFFE4A128802F04002002AF9D028
:10491000C2B2FB4B1B1D1A80704710B5044600BF86
:104920008021F748FDF724FEF64909688842F7D050
:104930002146F348FDF7AEFD10BD10B5044600BF9B
:104940008021F148FDF714FEEE4909688842F7D04E
:104950002146ED48FDF79EFD10BD10B5044600BF91
:104960008021EA48FDF704FEE64909688842F7D04D
:104970002146E648FDF78EFD10BD10B586B0044611
:10498000012144F20400FCF7D7FCDD48FDF746FCAA
:104990004FF40070ADF8140003208DF816001820B5
:1049A0008DF8170005A9DA48FCF7EAF94FF48060A2
:1049B000ADF8140048208DF8170005A9D448FCF77D
:1049C000DFF925208DF8000003208DF801008DF817
:1049D000020001208DF803006846FBF72AFE0194CF
:1049E0000020ADF80800ADF80A00ADF80C00ADF8F5
:1049F00010000C20ADF80E0001A9C148FDF751FCD4
:104A0000012240F22441BE48FDF7E3FC012240F2BE
:104A10002551BB48FDF7DDFC0121B948FDF7CDFC70
:104A200006B010BD10B586B0044601210420FCF785
:104A300083FC01214804FCF78CFCB348FDF7EEFB36
:104A40000420ADF8140003208DF8160018208DF80E
:104A5000170005A9AE48FCF793F90820ADF814003B
:104A600004208DF8170005A9A948FCF789F926202C
:104A70008DF8000000208DF8010001208DF8020063
:104A80008DF803006846FBF7D4FD01940020ADF8D3
:104A90000800ADF80A00ADF80C00ADF810000C20CD
:104AA000ADF80E0001A99848FDF7FBFB012240F28A
:104AB00025519548FDF78DFC01219348FDF77DFCBC
:104AC00006B010BD10B586B0044601210820FCF7E1
:104AD00033FC01218804FCF73CFC8C48FDF79EFB6D
:104AE0004FF48060ADF8140003208DF816001820F4
:104AF0008DF8170005A98748FCF742F94FF40060CC
:104B0000ADF8140004208DF8170005A98148FCF7C2
:104B100037F927208DF8000000208DF801000120D2
:104B20008DF802008DF803006846FBF782FD0194C2
:104B30000020ADF80800ADF80A00ADF80C00ADF8A3
:104B400010000C20ADF80E0001A97048FDF7A9FB7C
:104B5000012240F225516D48FDF73BFC01216B48D5
:104B6000FDF72BFC06B010BD0BE000BF64490988BF
:104B700001F040010029F9D00178614A121D11802D
:104B8000401C01780029F0D1704710B504460BE0B5
:104B900000BF5D48008800F040000028F9D0207870
:104BA0005949091D0880641C20780028F0D1FDF7C0
:104BB000C9FD10BD0BE000BF5449098801F0400158
:104BC0000029F9D00178514A121D1180401C01784A
:104BD0000029F0D1704710B500204F49C1F80401F9
:104BE0004FF480714C4800F0E8FBFDF7ABFD10BDC1
:104BF0004949D1F80411FF2904D90021464AC2F8D5
:104C000004110AE04449D1F80421D1F80411491CE7
:104C1000414BC3F8041119468854704710B500BFC2
:104C200040F225513648FDF7B9FC364909688842FB
:104C300006D03348FDF732FCC4B22046FFF7D8FF58
:104C400040F224412E48FDF7A9FC2E49096888420C
:104C500003D02B48FDF722FCC4B210BD2F49D1F878
:104C60000411FF2904D900212C4AC2F804110AE0DA
:104C70002A49D1F80421D1F80411491C274BC3F863
:104C8000041119468854704710B540F225511E484A
:104C9000FDF784FC01280BD11B48FDF7FFFBC4B2D4
:104CA0002046FFF7DBFF40F225511748FDF7A0FC37
:104CB00008211548FDF75CFC01280AD11248FDF7D0
:104CC000EDFBC4B22046FFF7C9FF08210E48FDF7EF
:104CD0005CFC10BD10B540F225510C48FDF75EFCA0
:104CE00008490968884221D00848FDF7D7FBC1B2BE
:104CF0000B48D0F80421D0F80401401C084B11E007
:104D00000038014098012242004400400048004021
:104D100000080140000C014040030020480400202E
:104D200050050020C3F804011846815410BD704797
:104D30000FB4044910B503AA029800F0B7FC10BCE8
:104D40005DF814FB480000200FB4044910B503AA15
:104D5000029800F0ABFC10BC5DF814FB480000208A
:104D60000FB41CB5084B06AA7B4469460090059811
:104D700000F065FC04460020694600F073FC204604
:104D80001CBC5DF814FB0000F90800000FB47CB5F2
:104D90000C0009AA009001D02044401E084B7B441F
:104DA00069460190089800F04AFC05461CB10020B5
:104DB000694600F057FC28467CBC5DF814FB0000F7
:104DC000CD08000070B50C460546012A05D02878AC
:104DD000800600D5EA69002302E0012305E05B1CA0
:104DE000934202D2E05C0028F9D1A869E618C01A03
:104DF000A861286A18442862284600F075FB04E080
:104E0000D5E9012114F8010B9047B442F8D32846A4
:104E100000F080FB70BD00002DE9F0410646002443
:104E200010687529314616A510D000F084FB0028C3
:104E300002DA404213A507E031688A0701D512A5BE
:104E400002E0490704D511A5012401E000F07CFB34
:104E500000210A2206F1240709E0B0FBF2FCB0FBB6
:104E6000F2F302FB1C00303078541846491C00282D
:104E7000F3D123462A463046BDE8F04100F06DBB31
:104E8000000000002D0000002B00000020000000AA
:104E9000F0B40D460188090502D5214C7C4402E09E
:104EA0001F4C7C440E34002100F1240608E002F07F
:104EB0000F071209E75D42EA03721B097754491C88
:104EC00052EA0307F3D102780023120704D5702DAC
:104ED00006D009B1022311342246F0BC00F03DBBDC
:104EE00001231034F8E770B504460D4621461068DA
:104EF00000F02AFB024629462046BDE87040002308
:104F0000C6E7D21D22F00703D3E90023C0E70368F8
:104F1000126843F0200303600823C3610023B7E74E
:104F2000344300002DE9F05F894604464FF0000A43
:104F3000DFF874B1FB44C0F820A02046E168884740
:104F4000002874D0252806D0D4E901219047206A92
:104F5000401C2062F1E700265F462046E168884752
:104F60002028054607DB312D05D2781910F8200CD2
:104F700008B10643F1E7B00701D526F00406C4F8EE
:104F80001CA00027C4F818A02A2D09D0284601F03B
:104F9000C0FD38B304EB8708303DC8F8185019E05D
:104FA00059F8041B204604EB87029161E1688847A9
:104FB000012F054618D1E069002820DA26F02006E6
:104FC0001DE0D8F8180000EB800005EB40003038F9
:104FD000C8F818002046E1688847054601F099FDA9
:104FE0000028EED1012F0AD02E2D08D12046E168ED
:104FF00088477F1C0546022F46F02006C4DBA069C7
:10500000002803DA404246F00106A061F00701D013
:1050100026F010066C2D0BD0682D09D04C2D39D000
:105020006A2D35D0742D35D07A2D33D016E038E086
:10503000E1682F4620468847B842054609D16C2FC3
:1050400026D04FF48060E168064320468847054635
:1050500004E06C2F1AD04FF4807006430DB3A5F115
:105060004100192802D8203546F400664A462946F0
:10507000204626604E46FBF795F880B101280BD0FC
:10508000F61D26F0070000F1080956E74020E4E786
:105090008020D8E70020D6E706F104094DE728462E
:1050A00052E7206ABDE8F09FC44200000FB400B58B
:1050B0008DB010A9099000910B904FF0FF300A902D
:1050C00000200C90064878440690064878446A46CA
:1050D00007900F9909A800F0E3FB0DB05DF814FBF1
:1050E000F70700000F0800002DE9FF5F1D464FF095
:1050F000FF3B91464FF000085F46D5E90146A9699C
:1051000001987F1C8847296A824688470028F6D183
:10511000BAF1FF3F0CD0002E24F4C06419DD600604
:1051200014D5BAF12B0F09D0BAF12D0F0ED103E02F
:10513000584604B0BDE8F09F44F48064A969019822
:105140007F1C8847761E8246002E02DDBAF1300FA2
:1051500003D0B9F1000F26D032E0A969761E01987C
:105160007F1C44F400748847002E824605DDBAF1A6
:10517000780F06D0BAF1580F03D0B9F1000F10D054
:105180001EE0B9F1000F02D0B9F1100F18D1A969D2
:10519000761E01987F1C24F40074884782461020F4
:1051A00002E0082000E00A20814609E0A96908FB26
:1051B0000908761E01987F1C44F4007488478246D3
:1051C000002E05DD4946504600F056FB0028EDDA7A
:1051D000E96901988847A00502D46FF00100A8E7AB
:1051E000E00725D1600613D5600502D5C8F100009F
:1051F00000E0404629680A1D2A600968220501D599
:10520000087015E0220701D5088011E008600FE062
:105210002868011D29600068210502D580F80080FA
:1052200006E0210702D5A0F8008001E0C0F8008068
:1052300038467EE72DE9FF5F4FF000089946144697
:1052400046469169D2E901A7DDF838B00198884750
:10525000054659EA0B0005D009E0A1690198761CC2
:1052600088470546216A284688470028F5D1681CEA
:1052700003D05FEACA7005D015E04FF0FF3004B0EC
:10528000BDE8F09F2068011D2160D0F800800AE091
:105290005FEACA7001D108F8015BA169761C019828
:1052A0007F1E88470546002F1ADD681C18D0B9F10B
:1052B000000F0DD0E81705EBD060421120F01F0061
:1052C00059F822102A1A012090400142E0D107E04B
:1052D000BBF1000FDCD12846216A88470028D7D0CF
:1052E000E16901988847BBF1000F07D1002E05DD69
:1052F0005FEACA7002D1002188F80010A068B842A5
:1053000003DDBBF1000F03D017B16FF00100B6E76A
:105310003046B4E730B505460B462A4613F8014B34
:1053200012F8010B08B1A042F8D01CB1002802D03D
:105330006D1CF1E7284630BD10B5431C02E010F8A3
:10534000011B71B18107FAD14FF0013202C88C1AEA
:105350008C4314EAC211F9D0C01A0A0603D0C01E49
:1053600010BDC01A10BD0A0401D0801E10BD090274
:10537000FCD0401E10BD4FF000020429C0F0128086
:1053800010F0030C00F01B80CCF1040CBCF1020FF8
:1053900018BF00F8012BA8BF20F8022BA1EB0C01CD
:1053A00000F00DB85FEAC17C24BF00F8012B00F8C3
:1053B000012B48BF00F8012B70474FF0000200B5E9
:1053C000134694469646203922BFA0E80C50A0E828
:1053D0000C50B1F12001BFF4F7AF090728BFA0E8D6
:1053E0000C5048BF0CC05DF804EB890028BF40F8A2
:1053F000042B08BF704748BF20F8022B11F0804FE4
:1054000018BF00F8012B704710B5044610F0030FC9
:1054100008BF11F0030F40F015804FF0013E121F3E
:10542000C0F20E8051F8043BA3EB0E0C2CEA030CE7
:105430001CEACE1C08BF40F8043BF0D0A1F10401E7
:1054400002F10402521E08DB11F8013B002B00F8A8
:10545000013BF7D11146FFF78EFF204610BD00003B
:105460004FF0013C50F8042B51F8043B9A4221D1F3
:10547000A2EB0C03934313EACC1317D150F8042B7F
:1054800051F8043B9A4215D1A2EB0C03934313EA63
:10549000CC130BD150F8042B51F8043B9A4209D19C
:1054A000A2EB0C03934313EACC13DBD04FF00000C4
:1054B000704700BFD01A01BAB1FA81F101F01801AA
:1054C00022FA01F0CB40C1F12001DBB2C0B2C01A18
:1054D0002CFA01F3D11A914311EAC311E6D17047B6
:1054E000704770477047704770B50446856900681B
:1054F000C10601D5302600E02026C00707D070BDC8
:10550000D4E9012130469047206A401C20626D1E7C
:10551000F6D570BD70B5044685690078C00707D11F
:1055200070BDD4E9012120209047206A401C2062F0
:105530006D1EF6D570BD09684A0501D540B27047A9
:10554000C905FCD500B2704709684A0501D5C0B24B
:105550007047C905FCD580B270472DE9F0470D466C
:1055600099469246044600F124080168880604D54D
:10557000E06921F01001216000E00120A84201DD76
:10558000471B00E00027A1697A1902EB0900081AFD
:10559000A0612078C00602D42046FFF7A5FF0026B0
:1055A00008E0D4E901211AF806009047206A401C5F
:1055B000761C20624E45F4DB2078C0060AD52046D2
:1055C000FFF792FF06E0D4E9012130209047206ADE
:1055D000401C2062381EA7F10107F4DC07E0D4E983
:1055E000012118F805009047206A401C2062281EFF
:1055F000A5F10105F3DC2046FFF78CFF20780006BB
:1056000002D50220BDE8F0870120FBE7116802689F
:10561000006A530501D508700AE0D30501D508805A
:1056200006E0130603D5C217C1E9000200E00860D6
:105630000120704701694A1C02610878704700B573
:105640008FB0CDE901310021059105497944CDE9BB
:10565000031011466846FFF765FC0FB000BD00005F
:10566000E5FFFFFF0A6802F8010B0A607047D1E905
:1056700000239A4202D2531C0B601070704710B581
:10568000436913B1AFF3008001E0FFF79BFB0120FA
:1056900010BD127800F124010A7000224A70012224
:1056A000EDE711684FF0FF32E9E70000074B70B5F6
:1056B0000D467B44FFF7C3FF0446284600F04CFD2F
:1056C00010B14FF0FF3070BD204670BD4DF2FFFFAE
:1056D0002DE9FF5F15468A460446DFF8AC80F844A2
:1056E0000027D8E900103E46CDE9001010E03AF856
:1056F00016106A4602A800F033FD411C07D021783D
:10570000890603D5E269391891420DD80744761C01
:105710002078800602D5E069B84205DDAE42E6DBBE
:105720003AF816000028E2D1A069C01BA06120460B
:10573000FFF7DAFED8E90010CDE90010002017E0ED
:105740003AF818106A4602A800F00AFDB0F1FF3FCF
:1057500081460BD000250DF1080B05E0D4E90121AD
:105760001BF8050090476D1C4D45F7D308F101006B
:10577000B0428046E4DB206A384420622046FFF7CE
:10578000C9FEBDE8FF9F00002E3B00002DE9F0415F
:105790008046D21D22F007020025D2E90002F52939
:1057A00015A614D0011E72F1000106DA0023D0EB19
:1057B000030063EB020211A608E0D8F800108B0783
:1057C00001D50FA602E0490701D50EA60125114615
:1057D000002408F1240704E000F092F830323A5532
:1057E000641C50EA0102F7D12B463246214640465E
:1057F000BDE8F041FFF7B1BE000000002D00000041
:105800002B0000002000000030B4002100F124042F
:1058100008E002F00705D208303542EA4372DB089F
:105820006554491C52EA0305F3D10468002310A211
:10583000250708D504F020040C4304D0C4690123D3
:105840000CA2641EC46130BCFFF787BE10B50446CD
:1058500021461068FFF778FE02462046BDE810405A
:105860000023D1E7D21D22F00701D1E90023CBE7C5
:1058700000000000300000003A2800D2303820F04C
:105880002002412A01D3A2F13700884201D34FF010
:10589000FF30704702681144137801601846704762
:1058A000D16005497944516104497944116200216C
:1058B0001161114600F096BAEDFFFFFFDD00000018
:1058C000426842B1016811F8013B23B1521EC0E9A0
:1058D0000012184670470121C160881E7047426857
:1058E0005AB1C368016843B983688B4205D0491E29
:1058F000521CC0E90012002070474FF0FF30704783
:1059000030B5B0F10A024FEA900E71F100034EEA91
:10591000817EB0EB0E0061EB91014FEA101E4EEA62
:10592000017E10EB0E0041EB11114FEA102E4EEAF2
:10593000016E10EB0E0041EB11214FEA104E4EEAC2
:10594000014E10EB0E0041EB1141401841F10001F6
:105950004FEAD00040EA41704FEAD10110EB8005D8
:105960004FEA810444EA907444EB01046D1944EB5E
:105970000404521BA3414FF0000348BF0A3200D574
:1059800030BD401C41F1000130BD10B5044600F0AF
:105990002DFC0068005D00F0010010BD70472DE98E
:1059A000FF4F0C461E464FF0FF378BB0D2E9000187
:1059B000DDF860800A908A46C1F30A5505B93D4674
:1059C000002108464FF00000BAF1000F00F440003B
:1059D00005DA00EB80004FF4400101EA50004FEA85
:1059E0009059B9F1010F00DDB9460A9850EA4A0012
:1059F0000ED044F61050A5F2FF3545432F14B8F1F0
:105A0000000F1ED07542291E1EDDC9F100021CE0E8
:105A1000B8F1010F4FF0000001D0302103E0F24354
:105A200005E02154401CB042FBDB3046002200213F
:105A300021540B99C1F80880C1E900200FB0BDE8DE
:105A4000F08FBD1B6D1CDEE74A4600DA694206A8EE
:105A500000F018FC06AB93E8070003AB83E80700EF
:105A600050460A9900F086FC8DE80700A0F500502A
:105A70001F3800900398002D09DD42F21F014A46AD
:105A8000084403A90390684600F0E5FE08E0A0F58D
:105A900000504A461F3803A90390684600F0EFFE05
:105AA0008DE807000004000C03D04FF0FF304108E0
:105AB00000E01046B8F1000F03D000220092154616
:105AC0001EE0751E05D4FFF71BFF303262556D1EB8
:105AD000F9D5B3460122084302D000227F1C04E01E
